{
	"data": {
		"bytecode": {
			"linkReferences": {},
			"object": "608060405234801561000f575f80fd5b5061076c8061001d5f395ff3fe608060405234801561000f575f80fd5b5060043610610034575f3560e01c806336d6da5514610038578063a087a87e14610054575b5f80fd5b610052600480360381019061004d9190610345565b610084565b005b61006e6004803603810190610069919061039f565b6100d2565b60405161007b9190610444565b60405180910390f35b805f808473ffffffffffffffffffffffffffffffffffffffff1673ffffffffffffffffffffffffffffffffffffffff1681526020019081526020015f2090816100cd9190610667565b505050565b60605f808373ffffffffffffffffffffffffffffffffffffffff1673ffffffffffffffffffffffffffffffffffffffff1681526020019081526020015f20805461011b90610491565b80601f016020809104026020016040519081016040528092919081815260200182805461014790610491565b80156101925780601f1061016957610100808354040283529160200191610192565b820191905f5260205f20905b81548152906001019060200180831161017557829003601f168201915b50505050509050919050565b5f604051905090565b5f80fd5b5f80fd5b5f73ffffffffffffffffffffffffffffffffffffffff82169050919050565b5f6101d8826101af565b9050919050565b6101e8816101ce565b81146101f2575f80fd5b50565b5f81359050610203816101df565b92915050565b5f80fd5b5f80fd5b5f601f19601f8301169050919050565b7f4e487b71000000000000000000000000000000000000000000000000000000005f52604160045260245ffd5b61025782610211565b810181811067ffffffffffffffff8211171561027657610275610221565b5b80604052505050565b5f61028861019e565b9050610294828261024e565b919050565b5f67ffffffffffffffff8211156102b3576102b2610221565b5b6102bc82610211565b9050602081019050919050565b828183375f83830152505050565b5f6102e96102e484610299565b61027f565b9050828152602081018484840111156103055761030461020d565b5b6103108482856102c9565b509392505050565b5f82601f83011261032c5761032b610209565b5b813561033c8482602086016102d7565b91505092915050565b5f806040838503121561035b5761035a6101a7565b5b5f610368858286016101f5565b925050602083013567ffffffffffffffff811115610389576103886101ab565b5b61039585828601610318565b9150509250929050565b5f602082840312156103b4576103b36101a7565b5b5f6103c1848285016101f5565b91505092915050565b5f81519050919050565b5f82825260208201905092915050565b5f5b838110156104015780820151818401526020810190506103e6565b5f8484015250505050565b5f610416826103ca565b61042081856103d4565b93506104308185602086016103e4565b61043981610211565b840191505092915050565b5f6020820190508181035f83015261045c818461040c565b905092915050565b7f4e487b71000000000000000000000000000000000000000000000000000000005f52602260045260245ffd5b5f60028204905060018216806104a857607f821691505b6020821081036104bb576104ba610464565b5b50919050565b5f819050815f5260205f209050919050565b5f6020601f8301049050919050565b5f82821b905092915050565b5f6008830261051d7fffffffffffffffffffffffffffffffffffffffffffffffffffffffffffffffff826104e2565b61052786836104e2565b95508019841693508086168417925050509392505050565b5f819050919050565b5f819050919050565b5f61056b6105666105618461053f565b610548565b61053f565b9050919050565b5f819050919050565b61058483610551565b61059861059082610572565b8484546104ee565b825550505050565b5f90565b6105ac6105a0565b6105b781848461057b565b505050565b5b818110156105da576105cf5f826105a4565b6001810190506105bd565b5050565b601f82111561061f576105f0816104c1565b6105f9846104d3565b81016020851015610608578190505b61061c610614856104d3565b8301826105bc565b50505b505050565b5f82821c905092915050565b5f61063f5f1984600802610624565b1980831691505092915050565b5f6106578383610630565b9150826002028217905092915050565b610670826103ca565b67ffffffffffffffff81111561068957610688610221565b5b6106938254610491565b61069e8282856105de565b5f60209050601f8311600181146106cf575f84156106bd578287015190505b6106c7858261064c565b86555061072e565b601f1984166106dd866104c1565b5f5b82811015610704578489015182556001820191506020850194506020810190506106df565b86831015610721578489015161071d601f891682610630565b8355505b6001600288020188555050505b50505050505056fea264697066735822122049b3aa5495c1d4a69d605e68de0ed877c988a3c9246bedd0b9ffec15b7ec08e564736f6c63430008160033",
			"opcodes": "PUSH1 0x80 PUSH1 0x40 MSTORE CALLVALUE DUP1 ISZERO PUSH2 0xF JUMPI PUSH0 DUP1 REVERT JUMPDEST POP PUSH2 0x76C DUP1 PUSH2 0x1D PUSH0 CODECOPY PUSH0 RETURN INVALID PUSH1 0x80 PUSH1 0x40 MSTORE CALLVALUE DUP1 ISZERO PUSH2 0xF JUMPI PUSH0 DUP1 REVERT JUMPDEST POP PUSH1 0x4 CALLDATASIZE LT PUSH2 0x34 JUMPI PUSH0 CALLDATALOAD PUSH1 0xE0 SHR DUP1 PUSH4 0x36D6DA55 EQ PUSH2 0x38 JUMPI DUP1 PUSH4 0xA087A87E EQ PUSH2 0x54 JUMPI JUMPDEST PUSH0 DUP1 REVERT JUMPDEST PUSH2 0x52 PUSH1 0x4 DUP1 CALLDATASIZE SUB DUP2 ADD SWAP1 PUSH2 0x4D SWAP2 SWAP1 PUSH2 0x345 JUMP JUMPDEST PUSH2 0x84 JUMP JUMPDEST STOP JUMPDEST PUSH2 0x6E PUSH1 0x4 DUP1 CALLDATASIZE SUB DUP2 ADD SWAP1 PUSH2 0x69 SWAP2 SWAP1 PUSH2 0x39F JUMP JUMPDEST PUSH2 0xD2 JUMP JUMPDEST PUSH1 0x40 MLOAD PUSH2 0x7B SWAP2 SWAP1 PUSH2 0x444 JUMP JUMPDEST PUSH1 0x40 MLOAD DUP1 SWAP2 SUB SWAP1 RETURN JUMPDEST DUP1 PUSH0 DUP1 DUP5 PUSH20 0xFFFFFFFFFFFFFFFFFFFFFFFFFFFFFFFFFFFFFFFF AND PUSH20 0xFFFFFFFFFFFFFFFFFFFFFFFFFFFFFFFFFFFFFFFF AND DUP2 MSTORE PUSH1 0x20 ADD SWAP1 DUP2 MSTORE PUSH1 0x20 ADD PUSH0 KECCAK256 SWAP1 DUP2 PUSH2 0xCD SWAP2 SWAP1 PUSH2 0x667 JUMP JUMPDEST POP POP POP JUMP JUMPDEST PUSH1 0x60 PUSH0 DUP1 DUP4 PUSH20 0xFFFFFFFFFFFFFFFFFFFFFFFFFFFFFFFFFFFFFFFF AND PUSH20 0xFFFFFFFFFFFFFFFFFFFFFFFFFFFFFFFFFFFFFFFF AND DUP2 MSTORE PUSH1 0x20 ADD SWAP1 DUP2 MSTORE PUSH1 0x20 ADD PUSH0 KECCAK256 DUP1 SLOAD PUSH2 0x11B SWAP1 PUSH2 0x491 JUMP JUMPDEST DUP1 PUSH1 0x1F ADD PUSH1 0x20 DUP1 SWAP2 DIV MUL PUSH1 0x20 ADD PUSH1 0x40 MLOAD SWAP1 DUP2 ADD PUSH1 0x40 MSTORE DUP1 SWAP3 SWAP2 SWAP1 DUP2 DUP2 MSTORE PUSH1 0x20 ADD DUP3 DUP1 SLOAD PUSH2 0x147 SWAP1 PUSH2 0x491 JUMP JUMPDEST DUP1 ISZERO PUSH2 0x192 JUMPI DUP1 PUSH1 0x1F LT PUSH2 0x169 JUMPI PUSH2 0x100 DUP1 DUP4 SLOAD DIV MUL DUP4 MSTORE SWAP2 PUSH1 0x20 ADD SWAP2 PUSH2 0x192 JUMP JUMPDEST DUP3 ADD SWAP2 SWAP1 PUSH0 MSTORE PUSH1 0x20 PUSH0 KECCAK256 SWAP1 JUMPDEST DUP2 SLOAD DUP2 MSTORE SWAP1 PUSH1 0x1 ADD SWAP1 PUSH1 0x20 ADD DUP1 DUP4 GT PUSH2 0x175 JUMPI DUP3 SWAP1 SUB PUSH1 0x1F AND DUP3 ADD SWAP2 JUMPDEST POP POP POP POP POP SWAP1 POP SWAP2 SWAP1 POP JUMP JUMPDEST PUSH0 PUSH1 0x40 MLOAD SWAP1 POP SWAP1 JUMP JUMPDEST PUSH0 DUP1 REVERT JUMPDEST PUSH0 DUP1 REVERT JUMPDEST PUSH0 PUSH20 0xFFFFFFFFFFFFFFFFFFFFFFFFFFFFFFFFFFFFFFFF DUP3 AND SWAP1 POP SWAP2 SWAP1 POP JUMP JUMPDEST PUSH0 PUSH2 0x1D8 DUP3 PUSH2 0x1AF JUMP JUMPDEST SWAP1 POP SWAP2 SWAP1 POP JUMP JUMPDEST PUSH2 0x1E8 DUP2 PUSH2 0x1CE JUMP JUMPDEST DUP2 EQ PUSH2 0x1F2 JUMPI PUSH0 DUP1 REVERT JUMPDEST POP JUMP JUMPDEST PUSH0 DUP2 CALLDATALOAD SWAP1 POP PUSH2 0x203 DUP2 PUSH2 0x1DF JUMP JUMPDEST SWAP3 SWAP2 POP POP JUMP JUMPDEST PUSH0 DUP1 REVERT JUMPDEST PUSH0 DUP1 REVERT JUMPDEST PUSH0 PUSH1 0x1F NOT PUSH1 0x1F DUP4 ADD AND SWAP1 POP SWAP2 SWAP1 POP JUMP JUMPDEST PUSH32 0x4E487B7100000000000000000000000000000000000000000000000000000000 PUSH0 MSTORE PUSH1 0x41 PUSH1 0x4 MSTORE PUSH1 0x24 PUSH0 REVERT JUMPDEST PUSH2 0x257 DUP3 PUSH2 0x211 JUMP JUMPDEST DUP2 ADD DUP2 DUP2 LT PUSH8 0xFFFFFFFFFFFFFFFF DUP3 GT OR ISZERO PUSH2 0x276 JUMPI PUSH2 0x275 PUSH2 0x221 JUMP JUMPDEST JUMPDEST DUP1 PUSH1 0x40 MSTORE POP POP POP JUMP JUMPDEST PUSH0 PUSH2 0x288 PUSH2 0x19E JUMP JUMPDEST SWAP1 POP PUSH2 0x294 DUP3 DUP3 PUSH2 0x24E JUMP JUMPDEST SWAP2 SWAP1 POP JUMP JUMPDEST PUSH0 PUSH8 0xFFFFFFFFFFFFFFFF DUP3 GT ISZERO PUSH2 0x2B3 JUMPI PUSH2 0x2B2 PUSH2 0x221 JUMP JUMPDEST JUMPDEST PUSH2 0x2BC DUP3 PUSH2 0x211 JUMP JUMPDEST SWAP1 POP PUSH1 0x20 DUP2 ADD SWAP1 POP SWAP2 SWAP1 POP JUMP JUMPDEST DUP3 DUP2 DUP4 CALLDATACOPY PUSH0 DUP4 DUP4 ADD MSTORE POP POP POP JUMP JUMPDEST PUSH0 PUSH2 0x2E9 PUSH2 0x2E4 DUP5 PUSH2 0x299 JUMP JUMPDEST PUSH2 0x27F JUMP JUMPDEST SWAP1 POP DUP3 DUP2 MSTORE PUSH1 0x20 DUP2 ADD DUP5 DUP5 DUP5 ADD GT ISZERO PUSH2 0x305 JUMPI PUSH2 0x304 PUSH2 0x20D JUMP JUMPDEST JUMPDEST PUSH2 0x310 DUP5 DUP3 DUP6 PUSH2 0x2C9 JUMP JUMPDEST POP SWAP4 SWAP3 POP POP POP JUMP JUMPDEST PUSH0 DUP3 PUSH1 0x1F DUP4 ADD SLT PUSH2 0x32C JUMPI PUSH2 0x32B PUSH2 0x209 JUMP JUMPDEST JUMPDEST DUP2 CALLDATALOAD PUSH2 0x33C DUP5 DUP3 PUSH1 0x20 DUP7 ADD PUSH2 0x2D7 JUMP JUMPDEST SWAP2 POP POP SWAP3 SWAP2 POP POP JUMP JUMPDEST PUSH0 DUP1 PUSH1 0x40 DUP4 DUP6 SUB SLT ISZERO PUSH2 0x35B JUMPI PUSH2 0x35A PUSH2 0x1A7 JUMP JUMPDEST JUMPDEST PUSH0 PUSH2 0x368 DUP6 DUP3 DUP7 ADD PUSH2 0x1F5 JUMP JUMPDEST SWAP3 POP POP PUSH1 0x20 DUP4 ADD CALLDATALOAD PUSH8 0xFFFFFFFFFFFFFFFF DUP2 GT ISZERO PUSH2 0x389 JUMPI PUSH2 0x388 PUSH2 0x1AB JUMP JUMPDEST JUMPDEST PUSH2 0x395 DUP6 DUP3 DUP7 ADD PUSH2 0x318 JUMP JUMPDEST SWAP2 POP POP SWAP3 POP SWAP3 SWAP1 POP JUMP JUMPDEST PUSH0 PUSH1 0x20 DUP3 DUP5 SUB SLT ISZERO PUSH2 0x3B4 JUMPI PUSH2 0x3B3 PUSH2 0x1A7 JUMP JUMPDEST JUMPDEST PUSH0 PUSH2 0x3C1 DUP5 DUP3 DUP6 ADD PUSH2 0x1F5 JUMP JUMPDEST SWAP2 POP POP SWAP3 SWAP2 POP POP JUMP JUMPDEST PUSH0 DUP2 MLOAD SWAP1 POP SWAP2 SWAP1 POP JUMP JUMPDEST PUSH0 DUP3 DUP3 MSTORE PUSH1 0x20 DUP3 ADD SWAP1 POP SWAP3 SWAP2 POP POP JUMP JUMPDEST PUSH0 JUMPDEST DUP4 DUP2 LT ISZERO PUSH2 0x401 JUMPI DUP1 DUP3 ADD MLOAD DUP2 DUP5 ADD MSTORE PUSH1 0x20 DUP2 ADD SWAP1 POP PUSH2 0x3E6 JUMP JUMPDEST PUSH0 DUP5 DUP5 ADD MSTORE POP POP POP POP JUMP JUMPDEST PUSH0 PUSH2 0x416 DUP3 PUSH2 0x3CA JUMP JUMPDEST PUSH2 0x420 DUP2 DUP6 PUSH2 0x3D4 JUMP JUMPDEST SWAP4 POP PUSH2 0x430 DUP2 DUP6 PUSH1 0x20 DUP7 ADD PUSH2 0x3E4 JUMP JUMPDEST PUSH2 0x439 DUP2 PUSH2 0x211 JUMP JUMPDEST DUP5 ADD SWAP2 POP POP SWAP3 SWAP2 POP POP JUMP JUMPDEST PUSH0 PUSH1 0x20 DUP3 ADD SWAP1 POP DUP2 DUP2 SUB PUSH0 DUP4 ADD MSTORE PUSH2 0x45C DUP2 DUP5 PUSH2 0x40C JUMP JUMPDEST SWAP1 POP SWAP3 SWAP2 POP POP JUMP JUMPDEST PUSH32 0x4E487B7100000000000000000000000000000000000000000000000000000000 PUSH0 MSTORE PUSH1 0x22 PUSH1 0x4 MSTORE PUSH1 0x24 PUSH0 REVERT JUMPDEST PUSH0 PUSH1 0x2 DUP3 DIV SWAP1 POP PUSH1 0x1 DUP3 AND DUP1 PUSH2 0x4A8 JUMPI PUSH1 0x7F DUP3 AND SWAP2 POP JUMPDEST PUSH1 0x20 DUP3 LT DUP2 SUB PUSH2 0x4BB JUMPI PUSH2 0x4BA PUSH2 0x464 JUMP JUMPDEST JUMPDEST POP SWAP2 SWAP1 POP JUMP JUMPDEST PUSH0 DUP2 SWAP1 POP DUP2 PUSH0 MSTORE PUSH1 0x20 PUSH0 KECCAK256 SWAP1 POP SWAP2 SWAP1 POP JUMP JUMPDEST PUSH0 PUSH1 0x20 PUSH1 0x1F DUP4 ADD DIV SWAP1 POP SWAP2 SWAP1 POP JUMP JUMPDEST PUSH0 DUP3 DUP3 SHL SWAP1 POP SWAP3 SWAP2 POP POP JUMP JUMPDEST PUSH0 PUSH1 0x8 DUP4 MUL PUSH2 0x51D PUSH32 0xFFFFFFFFFFFFFFFFFFFFFFFFFFFFFFFFFFFFFFFFFFFFFFFFFFFFFFFFFFFFFFFF DUP3 PUSH2 0x4E2 JUMP JUMPDEST PUSH2 0x527 DUP7 DUP4 PUSH2 0x4E2 JUMP JUMPDEST SWAP6 POP DUP1 NOT DUP5 AND SWAP4 POP DUP1 DUP7 AND DUP5 OR SWAP3 POP POP POP SWAP4 SWAP3 POP POP POP JUMP JUMPDEST PUSH0 DUP2 SWAP1 POP SWAP2 SWAP1 POP JUMP JUMPDEST PUSH0 DUP2 SWAP1 POP SWAP2 SWAP1 POP JUMP JUMPDEST PUSH0 PUSH2 0x56B PUSH2 0x566 PUSH2 0x561 DUP5 PUSH2 0x53F JUMP JUMPDEST PUSH2 0x548 JUMP JUMPDEST PUSH2 0x53F JUMP JUMPDEST SWAP1 POP SWAP2 SWAP1 POP JUMP JUMPDEST PUSH0 DUP2 SWAP1 POP SWAP2 SWAP1 POP JUMP JUMPDEST PUSH2 0x584 DUP4 PUSH2 0x551 JUMP JUMPDEST PUSH2 0x598 PUSH2 0x590 DUP3 PUSH2 0x572 JUMP JUMPDEST DUP5 DUP5 SLOAD PUSH2 0x4EE JUMP JUMPDEST DUP3 SSTORE POP POP POP POP JUMP JUMPDEST PUSH0 SWAP1 JUMP JUMPDEST PUSH2 0x5AC PUSH2 0x5A0 JUMP JUMPDEST PUSH2 0x5B7 DUP2 DUP5 DUP5 PUSH2 0x57B JUMP JUMPDEST POP POP POP JUMP JUMPDEST JUMPDEST DUP2 DUP2 LT ISZERO PUSH2 0x5DA JUMPI PUSH2 0x5CF PUSH0 DUP3 PUSH2 0x5A4 JUMP JUMPDEST PUSH1 0x1 DUP2 ADD SWAP1 POP PUSH2 0x5BD JUMP JUMPDEST POP POP JUMP JUMPDEST PUSH1 0x1F DUP3 GT ISZERO PUSH2 0x61F JUMPI PUSH2 0x5F0 DUP2 PUSH2 0x4C1 JUMP JUMPDEST PUSH2 0x5F9 DUP5 PUSH2 0x4D3 JUMP JUMPDEST DUP2 ADD PUSH1 0x20 DUP6 LT ISZERO PUSH2 0x608 JUMPI DUP2 SWAP1 POP JUMPDEST PUSH2 0x61C PUSH2 0x614 DUP6 PUSH2 0x4D3 JUMP JUMPDEST DUP4 ADD DUP3 PUSH2 0x5BC JUMP JUMPDEST POP POP JUMPDEST POP POP POP JUMP JUMPDEST PUSH0 DUP3 DUP3 SHR SWAP1 POP SWAP3 SWAP2 POP POP JUMP JUMPDEST PUSH0 PUSH2 0x63F PUSH0 NOT DUP5 PUSH1 0x8 MUL PUSH2 0x624 JUMP JUMPDEST NOT DUP1 DUP4 AND SWAP2 POP POP SWAP3 SWAP2 POP POP JUMP JUMPDEST PUSH0 PUSH2 0x657 DUP4 DUP4 PUSH2 0x630 JUMP JUMPDEST SWAP2 POP DUP3 PUSH1 0x2 MUL DUP3 OR SWAP1 POP SWAP3 SWAP2 POP POP JUMP JUMPDEST PUSH2 0x670 DUP3 PUSH2 0x3CA JUMP JUMPDEST PUSH8 0xFFFFFFFFFFFFFFFF DUP2 GT ISZERO PUSH2 0x689 JUMPI PUSH2 0x688 PUSH2 0x221 JUMP JUMPDEST JUMPDEST PUSH2 0x693 DUP3 SLOAD PUSH2 0x491 JUMP JUMPDEST PUSH2 0x69E DUP3 DUP3 DUP6 PUSH2 0x5DE JUMP JUMPDEST PUSH0 PUSH1 0x20 SWAP1 POP PUSH1 0x1F DUP4 GT PUSH1 0x1 DUP2 EQ PUSH2 0x6CF JUMPI PUSH0 DUP5 ISZERO PUSH2 0x6BD JUMPI DUP3 DUP8 ADD MLOAD SWAP1 POP JUMPDEST PUSH2 0x6C7 DUP6 DUP3 PUSH2 0x64C JUMP JUMPDEST DUP7 SSTORE POP PUSH2 0x72E JUMP JUMPDEST PUSH1 0x1F NOT DUP5 AND PUSH2 0x6DD DUP7 PUSH2 0x4C1 JUMP JUMPDEST PUSH0 JUMPDEST DUP3 DUP2 LT ISZERO PUSH2 0x704 JUMPI DUP5 DUP10 ADD MLOAD DUP3 SSTORE PUSH1 0x1 DUP3 ADD SWAP2 POP PUSH1 0x20 DUP6 ADD SWAP5 POP PUSH1 0x20 DUP2 ADD SWAP1 POP PUSH2 0x6DF JUMP JUMPDEST DUP7 DUP4 LT ISZERO PUSH2 0x721 JUMPI DUP5 DUP10 ADD MLOAD PUSH2 0x71D PUSH1 0x1F DUP10 AND DUP3 PUSH2 0x630 JUMP JUMPDEST DUP4 SSTORE POP JUMPDEST PUSH1 0x1 PUSH1 0x2 DUP9 MUL ADD DUP9 SSTORE POP POP POP JUMPDEST POP POP POP POP POP POP JUMP INVALID LOG2 PUSH5 0x6970667358 0x22 SLT KECCAK256 0x49 0xB3 0xAA SLOAD SWAP6 0xC1 0xD4 0xA6 SWAP14 PUSH1 0x5E PUSH9 0xDE0ED877C988A3C924 PUSH12 0xEDD0B9FFEC15B7EC08E56473 PUSH16 0x6C634300081600330000000000000000 "
		},
		"gasEstimates": {
			"creation": {
				"codeDepositCost": "380000",
				"executionCost": "416",
				"totalCost": "380416"
			},
			"external": {
				"add(address,string)": "infinite",
				"read(address)": "infinite"
			}
		},
		"methodIdentifiers": {
			"add(address,string)": "36d6da55",
			"read(address)": "a087a87e"
		}
	},
	"abi": [
		{
			"inputs": [
				{
					"internalType": "address",
					"name": "Addr",
					"type": "address"
				},
				{
					"internalType": "string",
					"name": "cid",
					"type": "string"
				}
			],
			"name": "add",
			"outputs": [],
			"stateMutability": "nonpayable",
			"type": "function"
		},
		{
			"inputs": [
				{
					"internalType": "address",
					"name": "Addr",
					"type": "address"
				}
			],
			"name": "read",
			"outputs": [
				{
					"internalType": "string",
					"name": "",
					"type": "string"
				}
			],
			"stateMutability": "view",
			"type": "function"
		}
	]
}